{
	"_format": "hh-sol-artifact-1",
	"contractName": "YieldAggregator",
	"sourceName": "contracts/YieldAggregator.sol",
	"abi": [
		{
			"inputs": [],
			"stateMutability": "nonpayable",
			"type": "constructor"
		},
		{
			"anonymous": false,
			"inputs": [
				{
					"indexed": false,
					"internalType": "string",
					"name": "message",
					"type": "string"
				}
			],
			"name": "Debug",
			"type": "event"
		},
		{
			"anonymous": false,
			"inputs": [
				{
					"indexed": true,
					"internalType": "address",
					"name": "user",
					"type": "address"
				},
				{
					"indexed": false,
					"internalType": "uint256",
					"name": "amount",
					"type": "uint256"
				}
			],
			"name": "Deposit",
			"type": "event"
		},
		{
			"anonymous": false,
			"inputs": [
				{
					"indexed": true,
					"internalType": "address",
					"name": "previousOwner",
					"type": "address"
				},
				{
					"indexed": true,
					"internalType": "address",
					"name": "newOwner",
					"type": "address"
				}
			],
			"name": "OwnershipTransferred",
			"type": "event"
		},
		{
			"anonymous": false,
			"inputs": [
				{
					"indexed": true,
					"internalType": "address",
					"name": "user",
					"type": "address"
				}
			],
			"name": "Rebalance",
			"type": "event"
		},
		{
			"anonymous": false,
			"inputs": [
				{
					"indexed": true,
					"internalType": "address",
					"name": "user",
					"type": "address"
				},
				{
					"indexed": false,
					"internalType": "uint256",
					"name": "amount",
					"type": "uint256"
				}
			],
			"name": "Withdraw",
			"type": "event"
		},
		{
			"inputs": [],
			"name": "AAVE_POOL_ADDRESS",
			"outputs": [
				{
					"internalType": "address",
					"name": "",
					"type": "address"
				}
			],
			"stateMutability": "view",
			"type": "function"
		},
		{
			"inputs": [],
			"name": "WETH_ADDRESS",
			"outputs": [
				{
					"internalType": "address",
					"name": "",
					"type": "address"
				}
			],
			"stateMutability": "view",
			"type": "function"
		},
		{
			"inputs": [],
			"name": "aavePool",
			"outputs": [
				{
					"internalType": "contract IPool",
					"name": "",
					"type": "address"
				}
			],
			"stateMutability": "view",
			"type": "function"
		},
		{
			"inputs": [],
			"name": "activeProtocol",
			"outputs": [
				{
					"internalType": "uint8",
					"name": "",
					"type": "uint8"
				}
			],
			"stateMutability": "view",
			"type": "function"
		},
		{
			"inputs": [
				{
					"internalType": "address",
					"name": "",
					"type": "address"
				}
			],
			"name": "balances",
			"outputs": [
				{
					"internalType": "uint256",
					"name": "compoundBalance",
					"type": "uint256"
				},
				{
					"internalType": "uint256",
					"name": "aaveBalance",
					"type": "uint256"
				},
				{
					"internalType": "uint256",
					"name": "interestEarned",
					"type": "uint256"
				},
				{
					"internalType": "uint256",
					"name": "contractBalance",
					"type": "uint256"
				}
			],
			"stateMutability": "view",
			"type": "function"
		},
		{
			"inputs": [],
			"name": "cWETH_ADDRESS",
			"outputs": [
				{
					"internalType": "address",
					"name": "",
					"type": "address"
				}
			],
			"stateMutability": "view",
			"type": "function"
		},
		{
			"inputs": [],
			"name": "compound",
			"outputs": [
				{
					"internalType": "contract IComet",
					"name": "",
					"type": "address"
				}
			],
			"stateMutability": "view",
			"type": "function"
		},
		{
			"inputs": [
				{
					"internalType": "uint256",
					"name": "amount",
					"type": "uint256"
				}
			],
			"name": "depositToAave",
			"outputs": [],
			"stateMutability": "nonpayable",
			"type": "function"
		},
		{
			"inputs": [
				{
					"internalType": "uint256",
					"name": "amount",
					"type": "uint256"
				}
			],
			"name": "depositToCompound",
			"outputs": [],
			"stateMutability": "nonpayable",
			"type": "function"
		},
		{
			"inputs": [
				{
					"internalType": "address",
					"name": "user",
					"type": "address"
				}
			],
			"name": "getUserBalance",
			"outputs": [
				{
					"components": [
						{
							"internalType": "uint256",
							"name": "compoundBalance",
							"type": "uint256"
						},
						{
							"internalType": "uint256",
							"name": "aaveBalance",
							"type": "uint256"
						},
						{
							"internalType": "uint256",
							"name": "interestEarned",
							"type": "uint256"
						},
						{
							"internalType": "uint256",
							"name": "contractBalance",
							"type": "uint256"
						}
					],
					"internalType": "struct YieldAggregator.UserBalance",
					"name": "",
					"type": "tuple"
				}
			],
			"stateMutability": "view",
			"type": "function"
		},
		{
			"inputs": [],
			"name": "owner",
			"outputs": [
				{
					"internalType": "address",
					"name": "",
					"type": "address"
				}
			],
			"stateMutability": "view",
			"type": "function"
		},
		{
			"inputs": [
				{
					"internalType": "uint8",
					"name": "highestAPYProtocol",
					"type": "uint8"
				}
			],
			"name": "rebalance",
			"outputs": [],
			"stateMutability": "nonpayable",
			"type": "function"
		},
		{
			"inputs": [],
			"name": "renounceOwnership",
			"outputs": [],
			"stateMutability": "nonpayable",
			"type": "function"
		},
		{
			"inputs": [
				{
					"internalType": "address",
					"name": "newOwner",
					"type": "address"
				}
			],
			"name": "transferOwnership",
			"outputs": [],
			"stateMutability": "nonpayable",
			"type": "function"
		},
		{
			"inputs": [],
			"name": "weth",
			"outputs": [
				{
					"internalType": "contract IWETH",
					"name": "",
					"type": "address"
				}
			],
			"stateMutability": "view",
			"type": "function"
		},
		{
			"inputs": [],
			"name": "withdrawFromAave",
			"outputs": [],
			"stateMutability": "nonpayable",
			"type": "function"
		},
		{
			"inputs": [],
			"name": "withdrawFromCompound",
			"outputs": [],
			"stateMutability": "nonpayable",
			"type": "function"
		}
	],
	"bytecode": "0x60806040523480156200001157600080fd5b5060016000819055506200003a6200002e6200015b60201b60201c565b6200016360201b60201c565b7387870bca3f3fd6335c3f4ce8392d69350b4fa4e2600260006101000a81548173ffffffffffffffffffffffffffffffffffffffff021916908373ffffffffffffffffffffffffffffffffffffffff16021790555073a17581a9e3356d9a858b789d68b4d866e593ae94600360006101000a81548173ffffffffffffffffffffffffffffffffffffffff021916908373ffffffffffffffffffffffffffffffffffffffff16021790555073c02aaa39b223fe8d0a0e5c4f27ead9083c756cc2600460006101000a81548173ffffffffffffffffffffffffffffffffffffffff021916908373ffffffffffffffffffffffffffffffffffffffff1602179055506001600360146101000a81548160ff021916908360ff16021790555062000229565b600033905090565b6000600160009054906101000a900473ffffffffffffffffffffffffffffffffffffffff16905081600160006101000a81548173ffffffffffffffffffffffffffffffffffffffff021916908373ffffffffffffffffffffffffffffffffffffffff1602179055508173ffffffffffffffffffffffffffffffffffffffff168173ffffffffffffffffffffffffffffffffffffffff167f8be0079c531659141344cd1fd0a4f28419497f9722a3daafe3b4186f6b6457e060405160405180910390a35050565b6129f980620002396000396000f3fe608060405234801561001057600080fd5b506004361061010b5760003560e01c8063715018a6116100a2578063b67a89fa11610071578063b67a89fa14610273578063d26106e314610291578063f2fde38b1461029b578063f4ae1474146102b7578063f69e2046146102d35761010b565b8063715018a614610223578063814f772b1461022d5780638da5cb5b14610237578063a03e4bc3146102555761010b565b8063444a1ffa116100de578063444a1ffa1461019b57806347734892146101b95780635466e24d146101e957806368fd2d80146102075761010b565b8063040141e51461011057806327e235e31461012e578063300c0982146101615780633fc8cef31461017d575b600080fd5b6101186102f1565b6040516101259190611f9a565b60405180910390f35b61014860048036038101906101439190611fe6565b610309565b604051610158949392919061202c565b60405180910390f35b61017b6004803603810190610176919061209d565b610339565b005b6101856107de565b6040516101929190612129565b60405180910390f35b6101a3610804565b6040516101b09190611f9a565b60405180910390f35b6101d360048036038101906101ce9190611fe6565b61081c565b6040516101e091906121a8565b60405180910390f35b6101f161089d565b6040516101fe9190611f9a565b60405180910390f35b610221600480360381019061021c919061209d565b6108b5565b005b61022b610d6d565b005b610235610d81565b005b61023f6110de565b60405161024c9190611f9a565b60405180910390f35b61025d611108565b60405161026a91906121e4565b60405180910390f35b61027b61112e565b604051610288919061221b565b60405180910390f35b610299611141565b005b6102b560048036038101906102b09190611fe6565b61152a565b005b6102d160048036038101906102cc9190612262565b6115ae565b005b6102db611dbf565b6040516102e891906122b0565b60405180910390f35b73c02aaa39b223fe8d0a0e5c4f27ead9083c756cc281565b60056020528060005260406000206000915090508060000154908060010154908060020154908060030154905084565b600073c02aaa39b223fe8d0a0e5c4f27ead9083c756cc273ffffffffffffffffffffffffffffffffffffffff166370a08231336040518263ffffffff1660e01b81526004016103889190611f9a565b602060405180830381865afa1580156103a5573d6000803e3d6000fd5b505050506040513d601f19601f820116820180604052508101906103c991906122e0565b90508181101561040e576040517f08c379a000000000000000000000000000000000000000000000000000000000815260040161040590612390565b60405180910390fd5b600073c02aaa39b223fe8d0a0e5c4f27ead9083c756cc273ffffffffffffffffffffffffffffffffffffffff1663dd62ed3e33306040518363ffffffff1660e01b815260040161045f9291906123b0565b602060405180830381865afa15801561047c573d6000803e3d6000fd5b505050506040513d601f19601f820116820180604052508101906104a091906122e0565b9050828110156104e5576040517f08c379a00000000000000000000000000000000000000000000000000000000081526004016104dc9061244b565b60405180910390fd5b73c02aaa39b223fe8d0a0e5c4f27ead9083c756cc273ffffffffffffffffffffffffffffffffffffffff1663095ea7b373a17581a9e3356d9a858b789d68b4d866e593ae94856040518363ffffffff1660e01b815260040161054892919061246b565b6020604051808303816000875af1158015610567573d6000803e3d6000fd5b505050506040513d601f19601f8201168201806040525081019061058b91906124cc565b6105ca576040517f08c379a00000000000000000000000000000000000000000000000000000000081526004016105c190612545565b60405180910390fd5b73c02aaa39b223fe8d0a0e5c4f27ead9083c756cc273ffffffffffffffffffffffffffffffffffffffff166323b872dd3330866040518463ffffffff1660e01b815260040161061b93929190612565565b6020604051808303816000875af115801561063a573d6000803e3d6000fd5b505050506040513d601f19601f8201168201806040525081019061065e91906124cc565b61069d576040517f08c379a0000000000000000000000000000000000000000000000000000000008152600401610694906125e8565b60405180910390fd5b73a17581a9e3356d9a858b789d68b4d866e593ae9473ffffffffffffffffffffffffffffffffffffffff1663f2b9fdb873c02aaa39b223fe8d0a0e5c4f27ead9083c756cc2856040518363ffffffff1660e01b815260040161070092919061246b565b600060405180830381600087803b15801561071a57600080fd5b505af115801561072e573d6000803e3d6000fd5b5050505082600560003373ffffffffffffffffffffffffffffffffffffffff1673ffffffffffffffffffffffffffffffffffffffff16815260200190815260200160002060000160008282546107849190612637565b925050819055503373ffffffffffffffffffffffffffffffffffffffff167fe1fffcc4923d04b559f4d29a8bfc6cda04eb5b0d3c460751c2402c5c5cc9109c846040516107d1919061268d565b60405180910390a2505050565b600460009054906101000a900473ffffffffffffffffffffffffffffffffffffffff1681565b73a17581a9e3356d9a858b789d68b4d866e593ae9481565b610824611f31565b600560008373ffffffffffffffffffffffffffffffffffffffff1673ffffffffffffffffffffffffffffffffffffffff1681526020019081526020016000206040518060800160405290816000820154815260200160018201548152602001600282015481526020016003820154815250509050919050565b7387870bca3f3fd6335c3f4ce8392d69350b4fa4e281565b600073c02aaa39b223fe8d0a0e5c4f27ead9083c756cc273ffffffffffffffffffffffffffffffffffffffff166370a08231336040518263ffffffff1660e01b81526004016109049190611f9a565b602060405180830381865afa158015610921573d6000803e3d6000fd5b505050506040513d601f19601f8201168201806040525081019061094591906122e0565b90508181101561098a576040517f08c379a000000000000000000000000000000000000000000000000000000000815260040161098190612390565b60405180910390fd5b600073c02aaa39b223fe8d0a0e5c4f27ead9083c756cc273ffffffffffffffffffffffffffffffffffffffff1663dd62ed3e33306040518363ffffffff1660e01b81526004016109db9291906123b0565b602060405180830381865afa1580156109f8573d6000803e3d6000fd5b505050506040513d601f19601f82011682018060405250810190610a1c91906122e0565b905082811015610a61576040517f08c379a0000000000000000000000000000000000000000000000000000000008152600401610a589061244b565b60405180910390fd5b73c02aaa39b223fe8d0a0e5c4f27ead9083c756cc273ffffffffffffffffffffffffffffffffffffffff166323b872dd3330866040518463ffffffff1660e01b8152600401610ab293929190612565565b6020604051808303816000875af1158015610ad1573d6000803e3d6000fd5b505050506040513d601f19601f82011682018060405250810190610af591906124cc565b610b34576040517f08c379a0000000000000000000000000000000000000000000000000000000008152600401610b2b906125e8565b60405180910390fd5b73c02aaa39b223fe8d0a0e5c4f27ead9083c756cc273ffffffffffffffffffffffffffffffffffffffff1663095ea7b37387870bca3f3fd6335c3f4ce8392d69350b4fa4e2856040518363ffffffff1660e01b8152600401610b9792919061246b565b6020604051808303816000875af1158015610bb6573d6000803e3d6000fd5b505050506040513d601f19601f82011682018060405250810190610bda91906124cc565b610c19576040517f08c379a0000000000000000000000000000000000000000000000000000000008152600401610c1090612545565b60405180910390fd5b600260009054906101000a900473ffffffffffffffffffffffffffffffffffffffff1673ffffffffffffffffffffffffffffffffffffffff1663617ba03773c02aaa39b223fe8d0a0e5c4f27ead9083c756cc2853060006040518563ffffffff1660e01b8152600401610c8f94939291906126f1565b600060405180830381600087803b158015610ca957600080fd5b505af1158015610cbd573d6000803e3d6000fd5b5050505082600560003373ffffffffffffffffffffffffffffffffffffffff1673ffffffffffffffffffffffffffffffffffffffff1681526020019081526020016000206001016000828254610d139190612637565b925050819055503373ffffffffffffffffffffffffffffffffffffffff167fe1fffcc4923d04b559f4d29a8bfc6cda04eb5b0d3c460751c2402c5c5cc9109c84604051610d60919061268d565b60405180910390a2505050565b610d75611de5565b610d7f6000611e63565b565b6000600560003373ffffffffffffffffffffffffffffffffffffffff1673ffffffffffffffffffffffffffffffffffffffff16815260200190815260200160002060000154905060008111610e0b576040517f08c379a0000000000000000000000000000000000000000000000000000000008152600401610e02906127a8565b60405180910390fd5b73a17581a9e3356d9a858b789d68b4d866e593ae9473ffffffffffffffffffffffffffffffffffffffff1663f3fef3a373c02aaa39b223fe8d0a0e5c4f27ead9083c756cc27fffffffffffffffffffffffffffffffffffffffffffffffffffffffffffffffff6040518363ffffffff1660e01b8152600401610e8e92919061246b565b600060405180830381600087803b158015610ea857600080fd5b505af1158015610ebc573d6000803e3d6000fd5b505050506000600460009054906101000a900473ffffffffffffffffffffffffffffffffffffffff1673ffffffffffffffffffffffffffffffffffffffff166370a08231306040518263ffffffff1660e01b8152600401610f1d9190611f9a565b602060405180830381865afa158015610f3a573d6000803e3d6000fd5b505050506040513d601f19601f82011682018060405250810190610f5e91906122e0565b905081811015610fa3576040517f08c379a0000000000000000000000000000000000000000000000000000000008152600401610f9a90612390565b60405180910390fd5b600460009054906101000a900473ffffffffffffffffffffffffffffffffffffffff1673ffffffffffffffffffffffffffffffffffffffff1663a9059cbb33836040518363ffffffff1660e01b815260040161100092919061246b565b6020604051808303816000875af115801561101f573d6000803e3d6000fd5b505050506040513d601f19601f8201168201806040525081019061104391906124cc565b506000600560003373ffffffffffffffffffffffffffffffffffffffff1673ffffffffffffffffffffffffffffffffffffffff168152602001908152602001600020600001819055503373ffffffffffffffffffffffffffffffffffffffff167f884edad9ce6fa2440d8a54cc123490eb96d2768479d49ff9c7366125a9424364826040516110d2919061268d565b60405180910390a25050565b6000600160009054906101000a900473ffffffffffffffffffffffffffffffffffffffff16905090565b600260009054906101000a900473ffffffffffffffffffffffffffffffffffffffff1681565b600360149054906101000a900460ff1681565b6000600560003373ffffffffffffffffffffffffffffffffffffffff1673ffffffffffffffffffffffffffffffffffffffff168152602001908152602001600020600101549050600081116111cb576040517f08c379a00000000000000000000000000000000000000000000000000000000081526004016111c2906127a8565b60405180910390fd5b600260009054906101000a900473ffffffffffffffffffffffffffffffffffffffff1673ffffffffffffffffffffffffffffffffffffffff166369328dec73c02aaa39b223fe8d0a0e5c4f27ead9083c756cc27fffffffffffffffffffffffffffffffffffffffffffffffffffffffffffffffff306040518463ffffffff1660e01b815260040161125e939291906127c8565b6020604051808303816000875af115801561127d573d6000803e3d6000fd5b505050506040513d601f19601f820116820180604052508101906112a191906122e0565b506000600460009054906101000a900473ffffffffffffffffffffffffffffffffffffffff1673ffffffffffffffffffffffffffffffffffffffff166370a08231306040518263ffffffff1660e01b81526004016112ff9190611f9a565b602060405180830381865afa15801561131c573d6000803e3d6000fd5b505050506040513d601f19601f8201168201806040525081019061134091906122e0565b905081811015611385576040517f08c379a000000000000000000000000000000000000000000000000000000000815260040161137c90612390565b60405180910390fd5b6000828261139391906127ff565b90506000600560003373ffffffffffffffffffffffffffffffffffffffff1673ffffffffffffffffffffffffffffffffffffffff1681526020019081526020016000206001018190555080600560003373ffffffffffffffffffffffffffffffffffffffff1673ffffffffffffffffffffffffffffffffffffffff168152602001908152602001600020600201600082825461142f9190612637565b92505081905550600460009054906101000a900473ffffffffffffffffffffffffffffffffffffffff1673ffffffffffffffffffffffffffffffffffffffff1663a9059cbb33846040518363ffffffff1660e01b815260040161149392919061246b565b6020604051808303816000875af11580156114b2573d6000803e3d6000fd5b505050506040513d601f19601f820116820180604052508101906114d691906124cc565b503373ffffffffffffffffffffffffffffffffffffffff167f884edad9ce6fa2440d8a54cc123490eb96d2768479d49ff9c7366125a94243648360405161151d919061268d565b60405180910390a2505050565b611532611de5565b600073ffffffffffffffffffffffffffffffffffffffff168173ffffffffffffffffffffffffffffffffffffffff1614156115a2576040517f08c379a0000000000000000000000000000000000000000000000000000000008152600401611599906128a5565b60405180910390fd5b6115ab81611e63565b50565b60008160ff1614806115c3575060018160ff16145b611602576040517f08c379a00000000000000000000000000000000000000000000000000000000081526004016115f990612937565b60405180910390fd5b6000600560003373ffffffffffffffffffffffffffffffffffffffff1673ffffffffffffffffffffffffffffffffffffffff168152602001908152602001600020905060008260ff1614801561165c575060008160010154115b156119c657600081600101549050600260009054906101000a900473ffffffffffffffffffffffffffffffffffffffff1673ffffffffffffffffffffffffffffffffffffffff166369328dec73c02aaa39b223fe8d0a0e5c4f27ead9083c756cc27fffffffffffffffffffffffffffffffffffffffffffffffffffffffffffffffff306040518463ffffffff1660e01b81526004016116fd939291906127c8565b6020604051808303816000875af115801561171c573d6000803e3d6000fd5b505050506040513d601f19601f8201168201806040525081019061174091906122e0565b506000600460009054906101000a900473ffffffffffffffffffffffffffffffffffffffff1673ffffffffffffffffffffffffffffffffffffffff166370a08231306040518263ffffffff1660e01b815260040161179e9190611f9a565b602060405180830381865afa1580156117bb573d6000803e3d6000fd5b505050506040513d601f19601f820116820180604052508101906117df91906122e0565b9050600082826117ef91906127ff565b905060008460010181905550818460030181905550808460020160008282546118189190612637565b9250508190555073c02aaa39b223fe8d0a0e5c4f27ead9083c756cc273ffffffffffffffffffffffffffffffffffffffff1663095ea7b373a17581a9e3356d9a858b789d68b4d866e593ae94846040518363ffffffff1660e01b815260040161188292919061246b565b6020604051808303816000875af11580156118a1573d6000803e3d6000fd5b505050506040513d601f19601f820116820180604052508101906118c591906124cc565b611904576040517f08c379a00000000000000000000000000000000000000000000000000000000081526004016118fb90612545565b60405180910390fd5b73a17581a9e3356d9a858b789d68b4d866e593ae9473ffffffffffffffffffffffffffffffffffffffff1663f2b9fdb873c02aaa39b223fe8d0a0e5c4f27ead9083c756cc2846040518363ffffffff1660e01b815260040161196792919061246b565b600060405180830381600087803b15801561198157600080fd5b505af1158015611995573d6000803e3d6000fd5b50505050818460000160008282546119ad9190612637565b9250508190555060008460030181905550505050611d78565b60018260ff161480156119dd575060008160000154115b15611d775760008160000154905073a17581a9e3356d9a858b789d68b4d866e593ae9473ffffffffffffffffffffffffffffffffffffffff1663f3fef3a373c02aaa39b223fe8d0a0e5c4f27ead9083c756cc27fffffffffffffffffffffffffffffffffffffffffffffffffffffffffffffffff6040518363ffffffff1660e01b8152600401611a6e92919061246b565b600060405180830381600087803b158015611a8857600080fd5b505af1158015611a9c573d6000803e3d6000fd5b505050506000600460009054906101000a900473ffffffffffffffffffffffffffffffffffffffff1673ffffffffffffffffffffffffffffffffffffffff166370a08231306040518263ffffffff1660e01b8152600401611afd9190611f9a565b602060405180830381865afa158015611b1a573d6000803e3d6000fd5b505050506040513d601f19601f82011682018060405250810190611b3e91906122e0565b905081811015611b83576040517f08c379a0000000000000000000000000000000000000000000000000000000008152600401611b7a90612390565b60405180910390fd5b60008282611b9191906127ff565b90506000846000018190555081846003018190555080846002016000828254611bba9190612637565b9250508190555073c02aaa39b223fe8d0a0e5c4f27ead9083c756cc273ffffffffffffffffffffffffffffffffffffffff1663095ea7b37387870bca3f3fd6335c3f4ce8392d69350b4fa4e2846040518363ffffffff1660e01b8152600401611c2492919061246b565b6020604051808303816000875af1158015611c43573d6000803e3d6000fd5b505050506040513d601f19601f82011682018060405250810190611c6791906124cc565b611ca6576040517f08c379a0000000000000000000000000000000000000000000000000000000008152600401611c9d90612545565b60405180910390fd5b600260009054906101000a900473ffffffffffffffffffffffffffffffffffffffff1673ffffffffffffffffffffffffffffffffffffffff1663617ba03773c02aaa39b223fe8d0a0e5c4f27ead9083c756cc2843060006040518563ffffffff1660e01b8152600401611d1c94939291906126f1565b600060405180830381600087803b158015611d3657600080fd5b505af1158015611d4a573d6000803e3d6000fd5b5050505081846001016000828254611d629190612637565b92505081905550600084600301819055505050505b5b3373ffffffffffffffffffffffffffffffffffffffff167fa61bd16ebda9d1c8ec2a61970b39e6640e55ed8433a22765a1b5217b72c4a81260405160405180910390a25050565b600360009054906101000a900473ffffffffffffffffffffffffffffffffffffffff1681565b611ded611f29565b73ffffffffffffffffffffffffffffffffffffffff16611e0b6110de565b73ffffffffffffffffffffffffffffffffffffffff1614611e61576040517f08c379a0000000000000000000000000000000000000000000000000000000008152600401611e58906129a3565b60405180910390fd5b565b6000600160009054906101000a900473ffffffffffffffffffffffffffffffffffffffff16905081600160006101000a81548173ffffffffffffffffffffffffffffffffffffffff021916908373ffffffffffffffffffffffffffffffffffffffff1602179055508173ffffffffffffffffffffffffffffffffffffffff168173ffffffffffffffffffffffffffffffffffffffff167f8be0079c531659141344cd1fd0a4f28419497f9722a3daafe3b4186f6b6457e060405160405180910390a35050565b600033905090565b6040518060800160405280600081526020016000815260200160008152602001600081525090565b600073ffffffffffffffffffffffffffffffffffffffff82169050919050565b6000611f8482611f59565b9050919050565b611f9481611f79565b82525050565b6000602082019050611faf6000830184611f8b565b92915050565b600080fd5b611fc381611f79565b8114611fce57600080fd5b50565b600081359050611fe081611fba565b92915050565b600060208284031215611ffc57611ffb611fb5565b5b600061200a84828501611fd1565b91505092915050565b6000819050919050565b61202681612013565b82525050565b6000608082019050612041600083018761201d565b61204e602083018661201d565b61205b604083018561201d565b612068606083018461201d565b95945050505050565b61207a81612013565b811461208557600080fd5b50565b60008135905061209781612071565b92915050565b6000602082840312156120b3576120b2611fb5565b5b60006120c184828501612088565b91505092915050565b6000819050919050565b60006120ef6120ea6120e584611f59565b6120ca565b611f59565b9050919050565b6000612101826120d4565b9050919050565b6000612113826120f6565b9050919050565b61212381612108565b82525050565b600060208201905061213e600083018461211a565b92915050565b61214d81612013565b82525050565b6080820160008201516121696000850182612144565b50602082015161217c6020850182612144565b50604082015161218f6040850182612144565b5060608201516121a26060850182612144565b50505050565b60006080820190506121bd6000830184612153565b92915050565b60006121ce826120f6565b9050919050565b6121de816121c3565b82525050565b60006020820190506121f960008301846121d5565b92915050565b600060ff82169050919050565b612215816121ff565b82525050565b6000602082019050612230600083018461220c565b92915050565b61223f816121ff565b811461224a57600080fd5b50565b60008135905061225c81612236565b92915050565b60006020828403121561227857612277611fb5565b5b60006122868482850161224d565b91505092915050565b600061229a826120f6565b9050919050565b6122aa8161228f565b82525050565b60006020820190506122c560008301846122a1565b92915050565b6000815190506122da81612071565b92915050565b6000602082840312156122f6576122f5611fb5565b5b6000612304848285016122cb565b91505092915050565b600082825260208201905092915050565b7f5969656c6441676772656761746f723a204e6f7420656e6f756768205745544860008201527f2062616c616e6365000000000000000000000000000000000000000000000000602082015250565b600061237a60288361230d565b91506123858261231e565b604082019050919050565b600060208201905081810360008301526123a98161236d565b9050919050565b60006040820190506123c56000830185611f8b565b6123d26020830184611f8b565b9392505050565b7f5969656c6441676772656761746f723a204e6f7420656e6f756768205745544860008201527f20616c6c6f77616e636500000000000000000000000000000000000000000000602082015250565b6000612435602a8361230d565b9150612440826123d9565b604082019050919050565b6000602082019050818103600083015261246481612428565b9050919050565b60006040820190506124806000830185611f8b565b61248d602083018461201d565b9392505050565b60008115159050919050565b6124a981612494565b81146124b457600080fd5b50565b6000815190506124c6816124a0565b92915050565b6000602082840312156124e2576124e1611fb5565b5b60006124f0848285016124b7565b91505092915050565b7f417070726f76616c206661696c65640000000000000000000000000000000000600082015250565b600061252f600f8361230d565b915061253a826124f9565b602082019050919050565b6000602082019050818103600083015261255e81612522565b9050919050565b600060608201905061257a6000830186611f8b565b6125876020830185611f8b565b612594604083018461201d565b949350505050565b7f5472616e73666572206661696c65640000000000000000000000000000000000600082015250565b60006125d2600f8361230d565b91506125dd8261259c565b602082019050919050565b60006020820190508181036000830152612601816125c5565b9050919050565b7f4e487b7100000000000000000000000000000000000000000000000000000000600052601160045260246000fd5b600061264282612013565b915061264d83612013565b9250827fffffffffffffffffffffffffffffffffffffffffffffffffffffffffffffffff0382111561268257612681612608565b5b828201905092915050565b60006020820190506126a2600083018461201d565b92915050565b6000819050919050565b600061ffff82169050919050565b60006126db6126d66126d1846126a8565b6120ca565b6126b2565b9050919050565b6126eb816126c0565b82525050565b60006080820190506127066000830187611f8b565b612713602083018661201d565b6127206040830185611f8b565b61272d60608301846126e2565b95945050505050565b7f5969656c6441676772656761746f723a204e6f7420656e6f756768207573657260008201527f2062616c616e6365000000000000000000000000000000000000000000000000602082015250565b600061279260288361230d565b915061279d82612736565b604082019050919050565b600060208201905081810360008301526127c181612785565b9050919050565b60006060820190506127dd6000830186611f8b565b6127ea602083018561201d565b6127f76040830184611f8b565b949350505050565b600061280a82612013565b915061281583612013565b92508282101561282857612827612608565b5b828203905092915050565b7f4f776e61626c653a206e6577206f776e657220697320746865207a65726f206160008201527f6464726573730000000000000000000000000000000000000000000000000000602082015250565b600061288f60268361230d565b915061289a82612833565b604082019050919050565b600060208201905081810360008301526128be81612882565b9050919050565b7f5969656c6441676772656761746f723a20496e76616c69642070726f746f636f60008201527f6c00000000000000000000000000000000000000000000000000000000000000602082015250565b600061292160218361230d565b915061292c826128c5565b604082019050919050565b6000602082019050818103600083015261295081612914565b9050919050565b7f4f776e61626c653a2063616c6c6572206973206e6f7420746865206f776e6572600082015250565b600061298d60208361230d565b915061299882612957565b602082019050919050565b600060208201905081810360008301526129bc81612980565b905091905056fea2646970667358221220146db18dfbf94326e16a96ea6abab82e296323a3f743646389adceac3fed0f6664736f6c634300080a0033",
	"linkReferences": {},
	"deployedLinkReferences": {}
}