{
	"_format": "hh-sol-artifact-1",
	"contractName": "YieldAggregator",
	"sourceName": "contracts/YieldAggregator.sol",
	"abi": [
		{
			"inputs": [],
			"stateMutability": "nonpayable",
			"type": "constructor"
		},
		{
			"anonymous": false,
			"inputs": [
				{
					"indexed": false,
					"internalType": "string",
					"name": "message",
					"type": "string"
				}
			],
			"name": "Debug",
			"type": "event"
		},
		{
			"anonymous": false,
			"inputs": [
				{
					"indexed": true,
					"internalType": "address",
					"name": "user",
					"type": "address"
				},
				{
					"indexed": false,
					"internalType": "uint256",
					"name": "amount",
					"type": "uint256"
				}
			],
			"name": "Deposit",
			"type": "event"
		},
		{
			"anonymous": false,
			"inputs": [
				{
					"indexed": true,
					"internalType": "address",
					"name": "previousOwner",
					"type": "address"
				},
				{
					"indexed": true,
					"internalType": "address",
					"name": "newOwner",
					"type": "address"
				}
			],
			"name": "OwnershipTransferred",
			"type": "event"
		},
		{
			"anonymous": false,
			"inputs": [
				{
					"indexed": true,
					"internalType": "address",
					"name": "user",
					"type": "address"
				}
			],
			"name": "Rebalance",
			"type": "event"
		},
		{
			"anonymous": false,
			"inputs": [
				{
					"indexed": true,
					"internalType": "address",
					"name": "user",
					"type": "address"
				},
				{
					"indexed": false,
					"internalType": "uint256",
					"name": "amount",
					"type": "uint256"
				}
			],
			"name": "Withdraw",
			"type": "event"
		},
		{
			"inputs": [],
			"name": "AAVE_POOL_ADDRESS",
			"outputs": [
				{
					"internalType": "address",
					"name": "",
					"type": "address"
				}
			],
			"stateMutability": "view",
			"type": "function"
		},
		{
			"inputs": [],
			"name": "WETH_ADDRESS",
			"outputs": [
				{
					"internalType": "address",
					"name": "",
					"type": "address"
				}
			],
			"stateMutability": "view",
			"type": "function"
		},
		{
			"inputs": [],
			"name": "aavePool",
			"outputs": [
				{
					"internalType": "contract IPool",
					"name": "",
					"type": "address"
				}
			],
			"stateMutability": "view",
			"type": "function"
		},
		{
			"inputs": [],
			"name": "activeProtocol",
			"outputs": [
				{
					"internalType": "uint8",
					"name": "",
					"type": "uint8"
				}
			],
			"stateMutability": "view",
			"type": "function"
		},
		{
			"inputs": [
				{
					"internalType": "address",
					"name": "",
					"type": "address"
				}
			],
			"name": "balances",
			"outputs": [
				{
					"internalType": "uint256",
					"name": "compoundBalance",
					"type": "uint256"
				},
				{
					"internalType": "uint256",
					"name": "aaveBalance",
					"type": "uint256"
				},
				{
					"internalType": "uint256",
					"name": "interestEarned",
					"type": "uint256"
				},
				{
					"internalType": "uint256",
					"name": "contractBalance",
					"type": "uint256"
				}
			],
			"stateMutability": "view",
			"type": "function"
		},
		{
			"inputs": [],
			"name": "cWETH_ADDRESS",
			"outputs": [
				{
					"internalType": "address",
					"name": "",
					"type": "address"
				}
			],
			"stateMutability": "view",
			"type": "function"
		},
		{
			"inputs": [],
			"name": "compound",
			"outputs": [
				{
					"internalType": "contract IComet",
					"name": "",
					"type": "address"
				}
			],
			"stateMutability": "view",
			"type": "function"
		},
		{
			"inputs": [
				{
					"internalType": "uint256",
					"name": "amount",
					"type": "uint256"
				}
			],
			"name": "depositToAave",
			"outputs": [],
			"stateMutability": "nonpayable",
			"type": "function"
		},
		{
			"inputs": [
				{
					"internalType": "uint256",
					"name": "amount",
					"type": "uint256"
				}
			],
			"name": "depositToCompound",
			"outputs": [],
			"stateMutability": "nonpayable",
			"type": "function"
		},
		{
			"inputs": [
				{
					"internalType": "address",
					"name": "user",
					"type": "address"
				}
			],
			"name": "getUserBalance",
			"outputs": [
				{
					"components": [
						{
							"internalType": "uint256",
							"name": "compoundBalance",
							"type": "uint256"
						},
						{
							"internalType": "uint256",
							"name": "aaveBalance",
							"type": "uint256"
						},
						{
							"internalType": "uint256",
							"name": "interestEarned",
							"type": "uint256"
						},
						{
							"internalType": "uint256",
							"name": "contractBalance",
							"type": "uint256"
						}
					],
					"internalType": "struct YieldAggregator.UserBalance",
					"name": "",
					"type": "tuple"
				}
			],
			"stateMutability": "view",
			"type": "function"
		},
		{
			"inputs": [],
			"name": "owner",
			"outputs": [
				{
					"internalType": "address",
					"name": "",
					"type": "address"
				}
			],
			"stateMutability": "view",
			"type": "function"
		},
		{
			"inputs": [
				{
					"internalType": "uint8",
					"name": "highestAPYProtocol",
					"type": "uint8"
				}
			],
			"name": "rebalance",
			"outputs": [],
			"stateMutability": "nonpayable",
			"type": "function"
		},
		{
			"inputs": [],
			"name": "renounceOwnership",
			"outputs": [],
			"stateMutability": "nonpayable",
			"type": "function"
		},
		{
			"inputs": [
				{
					"internalType": "address",
					"name": "newOwner",
					"type": "address"
				}
			],
			"name": "transferOwnership",
			"outputs": [],
			"stateMutability": "nonpayable",
			"type": "function"
		},
		{
			"inputs": [],
			"name": "weth",
			"outputs": [
				{
					"internalType": "contract IWETH",
					"name": "",
					"type": "address"
				}
			],
			"stateMutability": "view",
			"type": "function"
		},
		{
			"inputs": [],
			"name": "withdrawFromAave",
			"outputs": [],
			"stateMutability": "nonpayable",
			"type": "function"
		},
		{
			"inputs": [],
			"name": "withdrawFromCompound",
			"outputs": [],
			"stateMutability": "nonpayable",
			"type": "function"
		}
	],
	"bytecode": "0x60806040523480156200001157600080fd5b5060016000819055506200003a6200002e6200015b60201b60201c565b6200016360201b60201c565b7387870bca3f3fd6335c3f4ce8392d69350b4fa4e2600260006101000a81548173ffffffffffffffffffffffffffffffffffffffff021916908373ffffffffffffffffffffffffffffffffffffffff16021790555073a17581a9e3356d9a858b789d68b4d866e593ae94600360006101000a81548173ffffffffffffffffffffffffffffffffffffffff021916908373ffffffffffffffffffffffffffffffffffffffff16021790555073c02aaa39b223fe8d0a0e5c4f27ead9083c756cc2600460006101000a81548173ffffffffffffffffffffffffffffffffffffffff021916908373ffffffffffffffffffffffffffffffffffffffff1602179055506001600360146101000a81548160ff021916908360ff16021790555062000229565b600033905090565b6000600160009054906101000a900473ffffffffffffffffffffffffffffffffffffffff16905081600160006101000a81548173ffffffffffffffffffffffffffffffffffffffff021916908373ffffffffffffffffffffffffffffffffffffffff1602179055508173ffffffffffffffffffffffffffffffffffffffff168173ffffffffffffffffffffffffffffffffffffffff167f8be0079c531659141344cd1fd0a4f28419497f9722a3daafe3b4186f6b6457e060405160405180910390a35050565b612abf80620002396000396000f3fe608060405234801561001057600080fd5b506004361061010b5760003560e01c8063715018a6116100a2578063b67a89fa11610071578063b67a89fa14610273578063d26106e314610291578063f2fde38b1461029b578063f4ae1474146102b7578063f69e2046146102d35761010b565b8063715018a614610223578063814f772b1461022d5780638da5cb5b14610237578063a03e4bc3146102555761010b565b8063444a1ffa116100de578063444a1ffa1461019b57806347734892146101b95780635466e24d146101e957806368fd2d80146102075761010b565b8063040141e51461011057806327e235e31461012e578063300c0982146101615780633fc8cef31461017d575b600080fd5b6101186102f1565b6040516101259190612060565b60405180910390f35b610148600480360381019061014391906120ac565b610309565b60405161015894939291906120f2565b60405180910390f35b61017b60048036038101906101769190612163565b610339565b005b6101856107de565b60405161019291906121ef565b60405180910390f35b6101a3610804565b6040516101b09190612060565b60405180910390f35b6101d360048036038101906101ce91906120ac565b61081c565b6040516101e0919061226e565b60405180910390f35b6101f1610963565b6040516101fe9190612060565b60405180910390f35b610221600480360381019061021c9190612163565b61097b565b005b61022b610e33565b005b610235610e47565b005b61023f6111a4565b60405161024c9190612060565b60405180910390f35b61025d6111ce565b60405161026a91906122aa565b60405180910390f35b61027b6111f4565b60405161028891906122e1565b60405180910390f35b610299611207565b005b6102b560048036038101906102b091906120ac565b6115f0565b005b6102d160048036038101906102cc9190612328565b611674565b005b6102db611e85565b6040516102e89190612376565b60405180910390f35b73c02aaa39b223fe8d0a0e5c4f27ead9083c756cc281565b60056020528060005260406000206000915090508060000154908060010154908060020154908060030154905084565b600073c02aaa39b223fe8d0a0e5c4f27ead9083c756cc273ffffffffffffffffffffffffffffffffffffffff166370a08231336040518263ffffffff1660e01b81526004016103889190612060565b602060405180830381865afa1580156103a5573d6000803e3d6000fd5b505050506040513d601f19601f820116820180604052508101906103c991906123a6565b90508181101561040e576040517f08c379a000000000000000000000000000000000000000000000000000000000815260040161040590612456565b60405180910390fd5b600073c02aaa39b223fe8d0a0e5c4f27ead9083c756cc273ffffffffffffffffffffffffffffffffffffffff1663dd62ed3e33306040518363ffffffff1660e01b815260040161045f929190612476565b602060405180830381865afa15801561047c573d6000803e3d6000fd5b505050506040513d601f19601f820116820180604052508101906104a091906123a6565b9050828110156104e5576040517f08c379a00000000000000000000000000000000000000000000000000000000081526004016104dc90612511565b60405180910390fd5b73c02aaa39b223fe8d0a0e5c4f27ead9083c756cc273ffffffffffffffffffffffffffffffffffffffff1663095ea7b373a17581a9e3356d9a858b789d68b4d866e593ae94856040518363ffffffff1660e01b8152600401610548929190612531565b6020604051808303816000875af1158015610567573d6000803e3d6000fd5b505050506040513d601f19601f8201168201806040525081019061058b9190612592565b6105ca576040517f08c379a00000000000000000000000000000000000000000000000000000000081526004016105c19061260b565b60405180910390fd5b73c02aaa39b223fe8d0a0e5c4f27ead9083c756cc273ffffffffffffffffffffffffffffffffffffffff166323b872dd3330866040518463ffffffff1660e01b815260040161061b9392919061262b565b6020604051808303816000875af115801561063a573d6000803e3d6000fd5b505050506040513d601f19601f8201168201806040525081019061065e9190612592565b61069d576040517f08c379a0000000000000000000000000000000000000000000000000000000008152600401610694906126ae565b60405180910390fd5b73a17581a9e3356d9a858b789d68b4d866e593ae9473ffffffffffffffffffffffffffffffffffffffff1663f2b9fdb873c02aaa39b223fe8d0a0e5c4f27ead9083c756cc2856040518363ffffffff1660e01b8152600401610700929190612531565b600060405180830381600087803b15801561071a57600080fd5b505af115801561072e573d6000803e3d6000fd5b5050505082600560003373ffffffffffffffffffffffffffffffffffffffff1673ffffffffffffffffffffffffffffffffffffffff168152602001908152602001600020600001600082825461078491906126fd565b925050819055503373ffffffffffffffffffffffffffffffffffffffff167fe1fffcc4923d04b559f4d29a8bfc6cda04eb5b0d3c460751c2402c5c5cc9109c846040516107d19190612753565b60405180910390a2505050565b600460009054906101000a900473ffffffffffffffffffffffffffffffffffffffff1681565b73a17581a9e3356d9a858b789d68b4d866e593ae9481565b610824611ff7565b6000600560008473ffffffffffffffffffffffffffffffffffffffff1673ffffffffffffffffffffffffffffffffffffffff168152602001908152602001600020600001541480156108b857506000600560008473ffffffffffffffffffffffffffffffffffffffff1673ffffffffffffffffffffffffffffffffffffffff16815260200190815260200160002060010154145b156108e95760405180608001604052806000815260200160008152602001600081526020016000815250905061095e565b600560008373ffffffffffffffffffffffffffffffffffffffff1673ffffffffffffffffffffffffffffffffffffffff16815260200190815260200160002060405180608001604052908160008201548152602001600182015481526020016002820154815260200160038201548152505090505b919050565b7387870bca3f3fd6335c3f4ce8392d69350b4fa4e281565b600073c02aaa39b223fe8d0a0e5c4f27ead9083c756cc273ffffffffffffffffffffffffffffffffffffffff166370a08231336040518263ffffffff1660e01b81526004016109ca9190612060565b602060405180830381865afa1580156109e7573d6000803e3d6000fd5b505050506040513d601f19601f82011682018060405250810190610a0b91906123a6565b905081811015610a50576040517f08c379a0000000000000000000000000000000000000000000000000000000008152600401610a4790612456565b60405180910390fd5b600073c02aaa39b223fe8d0a0e5c4f27ead9083c756cc273ffffffffffffffffffffffffffffffffffffffff1663dd62ed3e33306040518363ffffffff1660e01b8152600401610aa1929190612476565b602060405180830381865afa158015610abe573d6000803e3d6000fd5b505050506040513d601f19601f82011682018060405250810190610ae291906123a6565b905082811015610b27576040517f08c379a0000000000000000000000000000000000000000000000000000000008152600401610b1e90612511565b60405180910390fd5b73c02aaa39b223fe8d0a0e5c4f27ead9083c756cc273ffffffffffffffffffffffffffffffffffffffff166323b872dd3330866040518463ffffffff1660e01b8152600401610b789392919061262b565b6020604051808303816000875af1158015610b97573d6000803e3d6000fd5b505050506040513d601f19601f82011682018060405250810190610bbb9190612592565b610bfa576040517f08c379a0000000000000000000000000000000000000000000000000000000008152600401610bf1906126ae565b60405180910390fd5b73c02aaa39b223fe8d0a0e5c4f27ead9083c756cc273ffffffffffffffffffffffffffffffffffffffff1663095ea7b37387870bca3f3fd6335c3f4ce8392d69350b4fa4e2856040518363ffffffff1660e01b8152600401610c5d929190612531565b6020604051808303816000875af1158015610c7c573d6000803e3d6000fd5b505050506040513d601f19601f82011682018060405250810190610ca09190612592565b610cdf576040517f08c379a0000000000000000000000000000000000000000000000000000000008152600401610cd69061260b565b60405180910390fd5b600260009054906101000a900473ffffffffffffffffffffffffffffffffffffffff1673ffffffffffffffffffffffffffffffffffffffff1663617ba03773c02aaa39b223fe8d0a0e5c4f27ead9083c756cc2853060006040518563ffffffff1660e01b8152600401610d5594939291906127b7565b600060405180830381600087803b158015610d6f57600080fd5b505af1158015610d83573d6000803e3d6000fd5b5050505082600560003373ffffffffffffffffffffffffffffffffffffffff1673ffffffffffffffffffffffffffffffffffffffff1681526020019081526020016000206001016000828254610dd991906126fd565b925050819055503373ffffffffffffffffffffffffffffffffffffffff167fe1fffcc4923d04b559f4d29a8bfc6cda04eb5b0d3c460751c2402c5c5cc9109c84604051610e269190612753565b60405180910390a2505050565b610e3b611eab565b610e456000611f29565b565b6000600560003373ffffffffffffffffffffffffffffffffffffffff1673ffffffffffffffffffffffffffffffffffffffff16815260200190815260200160002060000154905060008111610ed1576040517f08c379a0000000000000000000000000000000000000000000000000000000008152600401610ec89061286e565b60405180910390fd5b73a17581a9e3356d9a858b789d68b4d866e593ae9473ffffffffffffffffffffffffffffffffffffffff1663f3fef3a373c02aaa39b223fe8d0a0e5c4f27ead9083c756cc27fffffffffffffffffffffffffffffffffffffffffffffffffffffffffffffffff6040518363ffffffff1660e01b8152600401610f54929190612531565b600060405180830381600087803b158015610f6e57600080fd5b505af1158015610f82573d6000803e3d6000fd5b505050506000600460009054906101000a900473ffffffffffffffffffffffffffffffffffffffff1673ffffffffffffffffffffffffffffffffffffffff166370a08231306040518263ffffffff1660e01b8152600401610fe39190612060565b602060405180830381865afa158015611000573d6000803e3d6000fd5b505050506040513d601f19601f8201168201806040525081019061102491906123a6565b905081811015611069576040517f08c379a000000000000000000000000000000000000000000000000000000000815260040161106090612456565b60405180910390fd5b600460009054906101000a900473ffffffffffffffffffffffffffffffffffffffff1673ffffffffffffffffffffffffffffffffffffffff1663a9059cbb33836040518363ffffffff1660e01b81526004016110c6929190612531565b6020604051808303816000875af11580156110e5573d6000803e3d6000fd5b505050506040513d601f19601f820116820180604052508101906111099190612592565b506000600560003373ffffffffffffffffffffffffffffffffffffffff1673ffffffffffffffffffffffffffffffffffffffff168152602001908152602001600020600001819055503373ffffffffffffffffffffffffffffffffffffffff167f884edad9ce6fa2440d8a54cc123490eb96d2768479d49ff9c7366125a9424364826040516111989190612753565b60405180910390a25050565b6000600160009054906101000a900473ffffffffffffffffffffffffffffffffffffffff16905090565b600260009054906101000a900473ffffffffffffffffffffffffffffffffffffffff1681565b600360149054906101000a900460ff1681565b6000600560003373ffffffffffffffffffffffffffffffffffffffff1673ffffffffffffffffffffffffffffffffffffffff16815260200190815260200160002060010154905060008111611291576040517f08c379a00000000000000000000000000000000000000000000000000000000081526004016112889061286e565b60405180910390fd5b600260009054906101000a900473ffffffffffffffffffffffffffffffffffffffff1673ffffffffffffffffffffffffffffffffffffffff166369328dec73c02aaa39b223fe8d0a0e5c4f27ead9083c756cc27fffffffffffffffffffffffffffffffffffffffffffffffffffffffffffffffff306040518463ffffffff1660e01b81526004016113249392919061288e565b6020604051808303816000875af1158015611343573d6000803e3d6000fd5b505050506040513d601f19601f8201168201806040525081019061136791906123a6565b506000600460009054906101000a900473ffffffffffffffffffffffffffffffffffffffff1673ffffffffffffffffffffffffffffffffffffffff166370a08231306040518263ffffffff1660e01b81526004016113c59190612060565b602060405180830381865afa1580156113e2573d6000803e3d6000fd5b505050506040513d601f19601f8201168201806040525081019061140691906123a6565b90508181101561144b576040517f08c379a000000000000000000000000000000000000000000000000000000000815260040161144290612456565b60405180910390fd5b6000828261145991906128c5565b90506000600560003373ffffffffffffffffffffffffffffffffffffffff1673ffffffffffffffffffffffffffffffffffffffff1681526020019081526020016000206001018190555080600560003373ffffffffffffffffffffffffffffffffffffffff1673ffffffffffffffffffffffffffffffffffffffff16815260200190815260200160002060020160008282546114f591906126fd565b92505081905550600460009054906101000a900473ffffffffffffffffffffffffffffffffffffffff1673ffffffffffffffffffffffffffffffffffffffff1663a9059cbb33846040518363ffffffff1660e01b8152600401611559929190612531565b6020604051808303816000875af1158015611578573d6000803e3d6000fd5b505050506040513d601f19601f8201168201806040525081019061159c9190612592565b503373ffffffffffffffffffffffffffffffffffffffff167f884edad9ce6fa2440d8a54cc123490eb96d2768479d49ff9c7366125a9424364836040516115e39190612753565b60405180910390a2505050565b6115f8611eab565b600073ffffffffffffffffffffffffffffffffffffffff168173ffffffffffffffffffffffffffffffffffffffff161415611668576040517f08c379a000000000000000000000000000000000000000000000000000000000815260040161165f9061296b565b60405180910390fd5b61167181611f29565b50565b60008160ff161480611689575060018160ff16145b6116c8576040517f08c379a00000000000000000000000000000000000000000000000000000000081526004016116bf906129fd565b60405180910390fd5b6000600560003373ffffffffffffffffffffffffffffffffffffffff1673ffffffffffffffffffffffffffffffffffffffff168152602001908152602001600020905060008260ff16148015611722575060008160010154115b15611a8c57600081600101549050600260009054906101000a900473ffffffffffffffffffffffffffffffffffffffff1673ffffffffffffffffffffffffffffffffffffffff166369328dec73c02aaa39b223fe8d0a0e5c4f27ead9083c756cc27fffffffffffffffffffffffffffffffffffffffffffffffffffffffffffffffff306040518463ffffffff1660e01b81526004016117c39392919061288e565b6020604051808303816000875af11580156117e2573d6000803e3d6000fd5b505050506040513d601f19601f8201168201806040525081019061180691906123a6565b506000600460009054906101000a900473ffffffffffffffffffffffffffffffffffffffff1673ffffffffffffffffffffffffffffffffffffffff166370a08231306040518263ffffffff1660e01b81526004016118649190612060565b602060405180830381865afa158015611881573d6000803e3d6000fd5b505050506040513d601f19601f820116820180604052508101906118a591906123a6565b9050600082826118b591906128c5565b905060008460010181905550818460030181905550808460020160008282546118de91906126fd565b9250508190555073c02aaa39b223fe8d0a0e5c4f27ead9083c756cc273ffffffffffffffffffffffffffffffffffffffff1663095ea7b373a17581a9e3356d9a858b789d68b4d866e593ae94846040518363ffffffff1660e01b8152600401611948929190612531565b6020604051808303816000875af1158015611967573d6000803e3d6000fd5b505050506040513d601f19601f8201168201806040525081019061198b9190612592565b6119ca576040517f08c379a00000000000000000000000000000000000000000000000000000000081526004016119c19061260b565b60405180910390fd5b73a17581a9e3356d9a858b789d68b4d866e593ae9473ffffffffffffffffffffffffffffffffffffffff1663f2b9fdb873c02aaa39b223fe8d0a0e5c4f27ead9083c756cc2846040518363ffffffff1660e01b8152600401611a2d929190612531565b600060405180830381600087803b158015611a4757600080fd5b505af1158015611a5b573d6000803e3d6000fd5b5050505081846000016000828254611a7391906126fd565b9250508190555060008460030181905550505050611e3e565b60018260ff16148015611aa3575060008160000154115b15611e3d5760008160000154905073a17581a9e3356d9a858b789d68b4d866e593ae9473ffffffffffffffffffffffffffffffffffffffff1663f3fef3a373c02aaa39b223fe8d0a0e5c4f27ead9083c756cc27fffffffffffffffffffffffffffffffffffffffffffffffffffffffffffffffff6040518363ffffffff1660e01b8152600401611b34929190612531565b600060405180830381600087803b158015611b4e57600080fd5b505af1158015611b62573d6000803e3d6000fd5b505050506000600460009054906101000a900473ffffffffffffffffffffffffffffffffffffffff1673ffffffffffffffffffffffffffffffffffffffff166370a08231306040518263ffffffff1660e01b8152600401611bc39190612060565b602060405180830381865afa158015611be0573d6000803e3d6000fd5b505050506040513d601f19601f82011682018060405250810190611c0491906123a6565b905081811015611c49576040517f08c379a0000000000000000000000000000000000000000000000000000000008152600401611c4090612456565b60405180910390fd5b60008282611c5791906128c5565b90506000846000018190555081846003018190555080846002016000828254611c8091906126fd565b9250508190555073c02aaa39b223fe8d0a0e5c4f27ead9083c756cc273ffffffffffffffffffffffffffffffffffffffff1663095ea7b37387870bca3f3fd6335c3f4ce8392d69350b4fa4e2846040518363ffffffff1660e01b8152600401611cea929190612531565b6020604051808303816000875af1158015611d09573d6000803e3d6000fd5b505050506040513d601f19601f82011682018060405250810190611d2d9190612592565b611d6c576040517f08c379a0000000000000000000000000000000000000000000000000000000008152600401611d639061260b565b60405180910390fd5b600260009054906101000a900473ffffffffffffffffffffffffffffffffffffffff1673ffffffffffffffffffffffffffffffffffffffff1663617ba03773c02aaa39b223fe8d0a0e5c4f27ead9083c756cc2843060006040518563ffffffff1660e01b8152600401611de294939291906127b7565b600060405180830381600087803b158015611dfc57600080fd5b505af1158015611e10573d6000803e3d6000fd5b5050505081846001016000828254611e2891906126fd565b92505081905550600084600301819055505050505b5b3373ffffffffffffffffffffffffffffffffffffffff167fa61bd16ebda9d1c8ec2a61970b39e6640e55ed8433a22765a1b5217b72c4a81260405160405180910390a25050565b600360009054906101000a900473ffffffffffffffffffffffffffffffffffffffff1681565b611eb3611fef565b73ffffffffffffffffffffffffffffffffffffffff16611ed16111a4565b73ffffffffffffffffffffffffffffffffffffffff1614611f27576040517f08c379a0000000000000000000000000000000000000000000000000000000008152600401611f1e90612a69565b60405180910390fd5b565b6000600160009054906101000a900473ffffffffffffffffffffffffffffffffffffffff16905081600160006101000a81548173ffffffffffffffffffffffffffffffffffffffff021916908373ffffffffffffffffffffffffffffffffffffffff1602179055508173ffffffffffffffffffffffffffffffffffffffff168173ffffffffffffffffffffffffffffffffffffffff167f8be0079c531659141344cd1fd0a4f28419497f9722a3daafe3b4186f6b6457e060405160405180910390a35050565b600033905090565b6040518060800160405280600081526020016000815260200160008152602001600081525090565b600073ffffffffffffffffffffffffffffffffffffffff82169050919050565b600061204a8261201f565b9050919050565b61205a8161203f565b82525050565b60006020820190506120756000830184612051565b92915050565b600080fd5b6120898161203f565b811461209457600080fd5b50565b6000813590506120a681612080565b92915050565b6000602082840312156120c2576120c161207b565b5b60006120d084828501612097565b91505092915050565b6000819050919050565b6120ec816120d9565b82525050565b600060808201905061210760008301876120e3565b61211460208301866120e3565b61212160408301856120e3565b61212e60608301846120e3565b95945050505050565b612140816120d9565b811461214b57600080fd5b50565b60008135905061215d81612137565b92915050565b6000602082840312156121795761217861207b565b5b60006121878482850161214e565b91505092915050565b6000819050919050565b60006121b56121b06121ab8461201f565b612190565b61201f565b9050919050565b60006121c78261219a565b9050919050565b60006121d9826121bc565b9050919050565b6121e9816121ce565b82525050565b600060208201905061220460008301846121e0565b92915050565b612213816120d9565b82525050565b60808201600082015161222f600085018261220a565b506020820151612242602085018261220a565b506040820151612255604085018261220a565b506060820151612268606085018261220a565b50505050565b60006080820190506122836000830184612219565b92915050565b6000612294826121bc565b9050919050565b6122a481612289565b82525050565b60006020820190506122bf600083018461229b565b92915050565b600060ff82169050919050565b6122db816122c5565b82525050565b60006020820190506122f660008301846122d2565b92915050565b612305816122c5565b811461231057600080fd5b50565b600081359050612322816122fc565b92915050565b60006020828403121561233e5761233d61207b565b5b600061234c84828501612313565b91505092915050565b6000612360826121bc565b9050919050565b61237081612355565b82525050565b600060208201905061238b6000830184612367565b92915050565b6000815190506123a081612137565b92915050565b6000602082840312156123bc576123bb61207b565b5b60006123ca84828501612391565b91505092915050565b600082825260208201905092915050565b7f5969656c6441676772656761746f723a204e6f7420656e6f756768205745544860008201527f2062616c616e6365000000000000000000000000000000000000000000000000602082015250565b60006124406028836123d3565b915061244b826123e4565b604082019050919050565b6000602082019050818103600083015261246f81612433565b9050919050565b600060408201905061248b6000830185612051565b6124986020830184612051565b9392505050565b7f5969656c6441676772656761746f723a204e6f7420656e6f756768205745544860008201527f20616c6c6f77616e636500000000000000000000000000000000000000000000602082015250565b60006124fb602a836123d3565b91506125068261249f565b604082019050919050565b6000602082019050818103600083015261252a816124ee565b9050919050565b60006040820190506125466000830185612051565b61255360208301846120e3565b9392505050565b60008115159050919050565b61256f8161255a565b811461257a57600080fd5b50565b60008151905061258c81612566565b92915050565b6000602082840312156125a8576125a761207b565b5b60006125b68482850161257d565b91505092915050565b7f417070726f76616c206661696c65640000000000000000000000000000000000600082015250565b60006125f5600f836123d3565b9150612600826125bf565b602082019050919050565b60006020820190508181036000830152612624816125e8565b9050919050565b60006060820190506126406000830186612051565b61264d6020830185612051565b61265a60408301846120e3565b949350505050565b7f5472616e73666572206661696c65640000000000000000000000000000000000600082015250565b6000612698600f836123d3565b91506126a382612662565b602082019050919050565b600060208201905081810360008301526126c78161268b565b9050919050565b7f4e487b7100000000000000000000000000000000000000000000000000000000600052601160045260246000fd5b6000612708826120d9565b9150612713836120d9565b9250827fffffffffffffffffffffffffffffffffffffffffffffffffffffffffffffffff03821115612748576127476126ce565b5b828201905092915050565b600060208201905061276860008301846120e3565b92915050565b6000819050919050565b600061ffff82169050919050565b60006127a161279c6127978461276e565b612190565b612778565b9050919050565b6127b181612786565b82525050565b60006080820190506127cc6000830187612051565b6127d960208301866120e3565b6127e66040830185612051565b6127f360608301846127a8565b95945050505050565b7f5969656c6441676772656761746f723a204e6f7420656e6f756768207573657260008201527f2062616c616e6365000000000000000000000000000000000000000000000000602082015250565b60006128586028836123d3565b9150612863826127fc565b604082019050919050565b600060208201905081810360008301526128878161284b565b9050919050565b60006060820190506128a36000830186612051565b6128b060208301856120e3565b6128bd6040830184612051565b949350505050565b60006128d0826120d9565b91506128db836120d9565b9250828210156128ee576128ed6126ce565b5b828203905092915050565b7f4f776e61626c653a206e6577206f776e657220697320746865207a65726f206160008201527f6464726573730000000000000000000000000000000000000000000000000000602082015250565b60006129556026836123d3565b9150612960826128f9565b604082019050919050565b6000602082019050818103600083015261298481612948565b9050919050565b7f5969656c6441676772656761746f723a20496e76616c69642070726f746f636f60008201527f6c00000000000000000000000000000000000000000000000000000000000000602082015250565b60006129e76021836123d3565b91506129f28261298b565b604082019050919050565b60006020820190508181036000830152612a16816129da565b9050919050565b7f4f776e61626c653a2063616c6c6572206973206e6f7420746865206f776e6572600082015250565b6000612a536020836123d3565b9150612a5e82612a1d565b602082019050919050565b60006020820190508181036000830152612a8281612a46565b905091905056fea26469706673582212207413f8ab6136bfd7f2bc507a24e9faa3965b3caaa6f8d324ca6a2d3d617fd5f964736f6c634300080a0033",
	"linkReferences": {},
	"deployedLinkReferences": {}
}