{
	"_format": "hh-sol-artifact-1",
	"contractName": "YieldAggregator",
	"sourceName": "contracts/YieldAggregator.sol",
	"abi": [
		{
			"inputs": [],
			"stateMutability": "nonpayable",
			"type": "constructor"
		},
		{
			"anonymous": false,
			"inputs": [
				{
					"indexed": false,
					"internalType": "string",
					"name": "message",
					"type": "string"
				}
			],
			"name": "Debug",
			"type": "event"
		},
		{
			"anonymous": false,
			"inputs": [
				{
					"indexed": true,
					"internalType": "address",
					"name": "user",
					"type": "address"
				},
				{
					"indexed": false,
					"internalType": "uint256",
					"name": "amount",
					"type": "uint256"
				}
			],
			"name": "Deposit",
			"type": "event"
		},
		{
			"anonymous": false,
			"inputs": [
				{
					"indexed": true,
					"internalType": "address",
					"name": "previousOwner",
					"type": "address"
				},
				{
					"indexed": true,
					"internalType": "address",
					"name": "newOwner",
					"type": "address"
				}
			],
			"name": "OwnershipTransferred",
			"type": "event"
		},
		{
			"anonymous": false,
			"inputs": [
				{
					"indexed": true,
					"internalType": "address",
					"name": "user",
					"type": "address"
				}
			],
			"name": "Rebalance",
			"type": "event"
		},
		{
			"anonymous": false,
			"inputs": [
				{
					"indexed": true,
					"internalType": "address",
					"name": "user",
					"type": "address"
				},
				{
					"indexed": false,
					"internalType": "uint256",
					"name": "amount",
					"type": "uint256"
				}
			],
			"name": "Withdraw",
			"type": "event"
		},
		{
			"inputs": [],
			"name": "AAVE_POOL_ADDRESS",
			"outputs": [
				{
					"internalType": "address",
					"name": "",
					"type": "address"
				}
			],
			"stateMutability": "view",
			"type": "function"
		},
		{
			"inputs": [],
			"name": "WETH_ADDRESS",
			"outputs": [
				{
					"internalType": "address",
					"name": "",
					"type": "address"
				}
			],
			"stateMutability": "view",
			"type": "function"
		},
		{
			"inputs": [],
			"name": "aavePool",
			"outputs": [
				{
					"internalType": "contract IPool",
					"name": "",
					"type": "address"
				}
			],
			"stateMutability": "view",
			"type": "function"
		},
		{
			"inputs": [],
			"name": "activeProtocol",
			"outputs": [
				{
					"internalType": "uint8",
					"name": "",
					"type": "uint8"
				}
			],
			"stateMutability": "view",
			"type": "function"
		},
		{
			"inputs": [
				{
					"internalType": "address",
					"name": "",
					"type": "address"
				}
			],
			"name": "balances",
			"outputs": [
				{
					"internalType": "uint256",
					"name": "compoundBalance",
					"type": "uint256"
				},
				{
					"internalType": "uint256",
					"name": "aaveBalance",
					"type": "uint256"
				},
				{
					"internalType": "uint256",
					"name": "interestEarned",
					"type": "uint256"
				},
				{
					"internalType": "uint256",
					"name": "contractBalance",
					"type": "uint256"
				}
			],
			"stateMutability": "view",
			"type": "function"
		},
		{
			"inputs": [],
			"name": "cWETH_ADDRESS",
			"outputs": [
				{
					"internalType": "address",
					"name": "",
					"type": "address"
				}
			],
			"stateMutability": "view",
			"type": "function"
		},
		{
			"inputs": [],
			"name": "compound",
			"outputs": [
				{
					"internalType": "contract IComet",
					"name": "",
					"type": "address"
				}
			],
			"stateMutability": "view",
			"type": "function"
		},
		{
			"inputs": [
				{
					"internalType": "uint256",
					"name": "amount",
					"type": "uint256"
				},
				{
					"internalType": "uint8",
					"name": "protocol",
					"type": "uint8"
				}
			],
			"name": "deposit",
			"outputs": [],
			"stateMutability": "nonpayable",
			"type": "function"
		},
		{
			"inputs": [
				{
					"internalType": "address",
					"name": "user",
					"type": "address"
				}
			],
			"name": "getUserBalance",
			"outputs": [
				{
					"components": [
						{
							"internalType": "uint256",
							"name": "compoundBalance",
							"type": "uint256"
						},
						{
							"internalType": "uint256",
							"name": "aaveBalance",
							"type": "uint256"
						},
						{
							"internalType": "uint256",
							"name": "interestEarned",
							"type": "uint256"
						},
						{
							"internalType": "uint256",
							"name": "contractBalance",
							"type": "uint256"
						}
					],
					"internalType": "struct YieldAggregator.UserBalance",
					"name": "",
					"type": "tuple"
				}
			],
			"stateMutability": "view",
			"type": "function"
		},
		{
			"inputs": [],
			"name": "owner",
			"outputs": [
				{
					"internalType": "address",
					"name": "",
					"type": "address"
				}
			],
			"stateMutability": "view",
			"type": "function"
		},
		{
			"inputs": [
				{
					"internalType": "uint8",
					"name": "highestAPYProtocol",
					"type": "uint8"
				}
			],
			"name": "rebalance",
			"outputs": [],
			"stateMutability": "nonpayable",
			"type": "function"
		},
		{
			"inputs": [],
			"name": "renounceOwnership",
			"outputs": [],
			"stateMutability": "nonpayable",
			"type": "function"
		},
		{
			"inputs": [
				{
					"internalType": "address",
					"name": "newOwner",
					"type": "address"
				}
			],
			"name": "transferOwnership",
			"outputs": [],
			"stateMutability": "nonpayable",
			"type": "function"
		},
		{
			"inputs": [],
			"name": "weth",
			"outputs": [
				{
					"internalType": "contract IWETH",
					"name": "",
					"type": "address"
				}
			],
			"stateMutability": "view",
			"type": "function"
		},
		{
			"inputs": [],
			"name": "withdraw",
			"outputs": [],
			"stateMutability": "nonpayable",
			"type": "function"
		}
	],
	"bytecode": "0x60806040523480156200001157600080fd5b5060016000819055506200003a6200002e6200015b60201b60201c565b6200016360201b60201c565b7387870bca3f3fd6335c3f4ce8392d69350b4fa4e2600260006101000a81548173ffffffffffffffffffffffffffffffffffffffff021916908373ffffffffffffffffffffffffffffffffffffffff16021790555073a17581a9e3356d9a858b789d68b4d866e593ae94600360006101000a81548173ffffffffffffffffffffffffffffffffffffffff021916908373ffffffffffffffffffffffffffffffffffffffff16021790555073c02aaa39b223fe8d0a0e5c4f27ead9083c756cc2600460006101000a81548173ffffffffffffffffffffffffffffffffffffffff021916908373ffffffffffffffffffffffffffffffffffffffff1602179055506001600360146101000a81548160ff021916908360ff16021790555062000229565b600033905090565b6000600160009054906101000a900473ffffffffffffffffffffffffffffffffffffffff16905081600160006101000a81548173ffffffffffffffffffffffffffffffffffffffff021916908373ffffffffffffffffffffffffffffffffffffffff1602179055508173ffffffffffffffffffffffffffffffffffffffff168173ffffffffffffffffffffffffffffffffffffffff167f8be0079c531659141344cd1fd0a4f28419497f9722a3daafe3b4186f6b6457e060405160405180910390a35050565b6125f380620002396000396000f3fe608060405234801561001057600080fd5b50600436106100f55760003560e01c8063654cfdff11610097578063b67a89fa11610066578063b67a89fa14610241578063f2fde38b1461025f578063f4ae14741461027b578063f69e204614610297576100f5565b8063654cfdff146101df578063715018a6146101fb5780638da5cb5b14610205578063a03e4bc314610223576100f5565b80633fc8cef3116100d35780633fc8cef314610155578063444a1ffa1461017357806347734892146101915780635466e24d146101c1576100f5565b8063040141e5146100fa57806327e235e3146101185780633ccfd60b1461014b575b600080fd5b6101026102b5565b60405161010f9190611aef565b60405180910390f35b610132600480360381019061012d9190611b3b565b6102cd565b6040516101429493929190611b81565b60405180910390f35b6101536102fd565b005b61015d610856565b60405161016a9190611c25565b60405180910390f35b61017b61087c565b6040516101889190611aef565b60405180910390f35b6101ab60048036038101906101a69190611b3b565b610894565b6040516101b89190611ca4565b60405180910390f35b6101c96109db565b6040516101d69190611aef565b60405180910390f35b6101f960048036038101906101f49190611d24565b6109f3565b005b61020361109e565b005b61020d6110b2565b60405161021a9190611aef565b60405180910390f35b61022b6110dc565b6040516102389190611d85565b60405180910390f35b610249611102565b6040516102569190611daf565b60405180910390f35b61027960048036038101906102749190611b3b565b611115565b005b61029560048036038101906102909190611dca565b611199565b005b61029f611914565b6040516102ac9190611e18565b60405180910390f35b73c02aaa39b223fe8d0a0e5c4f27ead9083c756cc281565b60056020528060005260406000206000915090508060000154908060010154908060020154908060030154905084565b6000600560003373ffffffffffffffffffffffffffffffffffffffff1673ffffffffffffffffffffffffffffffffffffffff1681526020019081526020016000206001015490506000600560003373ffffffffffffffffffffffffffffffffffffffff1673ffffffffffffffffffffffffffffffffffffffff168152602001908152602001600020600001549050600082118061039a5750600081115b6103d9576040517f08c379a00000000000000000000000000000000000000000000000000000000081526004016103d090611eb6565b60405180910390fd5b600082111561050257600260009054906101000a900473ffffffffffffffffffffffffffffffffffffffff1673ffffffffffffffffffffffffffffffffffffffff166369328dec73c02aaa39b223fe8d0a0e5c4f27ead9083c756cc27fffffffffffffffffffffffffffffffffffffffffffffffffffffffffffffffff306040518463ffffffff1660e01b815260040161047593929190611ed6565b6020604051808303816000875af1158015610494573d6000803e3d6000fd5b505050506040513d601f19601f820116820180604052508101906104b89190611f22565b506000600560003373ffffffffffffffffffffffffffffffffffffffff1673ffffffffffffffffffffffffffffffffffffffff168152602001908152602001600020600101819055505b60008111156106095773a17581a9e3356d9a858b789d68b4d866e593ae9473ffffffffffffffffffffffffffffffffffffffff1663f3fef3a373c02aaa39b223fe8d0a0e5c4f27ead9083c756cc27fffffffffffffffffffffffffffffffffffffffffffffffffffffffffffffffff6040518363ffffffff1660e01b815260040161058e929190611f4f565b600060405180830381600087803b1580156105a857600080fd5b505af11580156105bc573d6000803e3d6000fd5b505050506000600560003373ffffffffffffffffffffffffffffffffffffffff1673ffffffffffffffffffffffffffffffffffffffff168152602001908152602001600020600001819055505b6000600460009054906101000a900473ffffffffffffffffffffffffffffffffffffffff1673ffffffffffffffffffffffffffffffffffffffff166370a08231306040518263ffffffff1660e01b81526004016106669190611aef565b602060405180830381865afa158015610683573d6000803e3d6000fd5b505050506040513d601f19601f820116820180604052508101906106a79190611f22565b9050600082846106b79190611fa7565b826106c29190611ffd565b90506000600460009054906101000a900473ffffffffffffffffffffffffffffffffffffffff1673ffffffffffffffffffffffffffffffffffffffff1663a9059cbb33856040518363ffffffff1660e01b8152600401610723929190611f4f565b6020604051808303816000875af1158015610742573d6000803e3d6000fd5b505050506040513d601f19601f820116820180604052508101906107669190612069565b9050806107a8576040517f08c379a000000000000000000000000000000000000000000000000000000000815260040161079f906120e2565b60405180910390fd5b81600560003373ffffffffffffffffffffffffffffffffffffffff1673ffffffffffffffffffffffffffffffffffffffff16815260200190815260200160002060020160008282546107fa9190611fa7565b925050819055503373ffffffffffffffffffffffffffffffffffffffff167f884edad9ce6fa2440d8a54cc123490eb96d2768479d49ff9c7366125a9424364846040516108479190612102565b60405180910390a25050505050565b600460009054906101000a900473ffffffffffffffffffffffffffffffffffffffff1681565b73a17581a9e3356d9a858b789d68b4d866e593ae9481565b61089c611a86565b6000600560008473ffffffffffffffffffffffffffffffffffffffff1673ffffffffffffffffffffffffffffffffffffffff1681526020019081526020016000206000015414801561093057506000600560008473ffffffffffffffffffffffffffffffffffffffff1673ffffffffffffffffffffffffffffffffffffffff16815260200190815260200160002060010154145b15610961576040518060800160405280600081526020016000815260200160008152602001600081525090506109d6565b600560008373ffffffffffffffffffffffffffffffffffffffff1673ffffffffffffffffffffffffffffffffffffffff16815260200190815260200160002060405180608001604052908160008201548152602001600182015481526020016002820154815260200160038201548152505090505b919050565b7387870bca3f3fd6335c3f4ce8392d69350b4fa4e281565b600073c02aaa39b223fe8d0a0e5c4f27ead9083c756cc273ffffffffffffffffffffffffffffffffffffffff166370a08231336040518263ffffffff1660e01b8152600401610a429190611aef565b602060405180830381865afa158015610a5f573d6000803e3d6000fd5b505050506040513d601f19601f82011682018060405250810190610a839190611f22565b905082811015610ac8576040517f08c379a0000000000000000000000000000000000000000000000000000000008152600401610abf9061218f565b60405180910390fd5b600073c02aaa39b223fe8d0a0e5c4f27ead9083c756cc273ffffffffffffffffffffffffffffffffffffffff1663dd62ed3e33306040518363ffffffff1660e01b8152600401610b199291906121af565b602060405180830381865afa158015610b36573d6000803e3d6000fd5b505050506040513d601f19601f82011682018060405250810190610b5a9190611f22565b905083811015610b9f576040517f08c379a0000000000000000000000000000000000000000000000000000000008152600401610b969061224a565b60405180910390fd5b73c02aaa39b223fe8d0a0e5c4f27ead9083c756cc273ffffffffffffffffffffffffffffffffffffffff166323b872dd3330876040518463ffffffff1660e01b8152600401610bf09392919061226a565b6020604051808303816000875af1158015610c0f573d6000803e3d6000fd5b505050506040513d601f19601f82011682018060405250810190610c339190612069565b610c72576040517f08c379a0000000000000000000000000000000000000000000000000000000008152600401610c69906120e2565b60405180910390fd5b60008360ff161415610e695773c02aaa39b223fe8d0a0e5c4f27ead9083c756cc273ffffffffffffffffffffffffffffffffffffffff1663095ea7b37387870bca3f3fd6335c3f4ce8392d69350b4fa4e2866040518363ffffffff1660e01b8152600401610ce1929190611f4f565b6020604051808303816000875af1158015610d00573d6000803e3d6000fd5b505050506040513d601f19601f82011682018060405250810190610d249190612069565b610d63576040517f08c379a0000000000000000000000000000000000000000000000000000000008152600401610d5a906122ed565b60405180910390fd5b600260009054906101000a900473ffffffffffffffffffffffffffffffffffffffff1673ffffffffffffffffffffffffffffffffffffffff1663617ba03773c02aaa39b223fe8d0a0e5c4f27ead9083c756cc2863060006040518563ffffffff1660e01b8152600401610dd99493929190612356565b600060405180830381600087803b158015610df357600080fd5b505af1158015610e07573d6000803e3d6000fd5b5050505083600560003373ffffffffffffffffffffffffffffffffffffffff1673ffffffffffffffffffffffffffffffffffffffff1681526020019081526020016000206001016000828254610e5d9190611fa7565b9250508190555061104a565b60018360ff1614156110495773c02aaa39b223fe8d0a0e5c4f27ead9083c756cc273ffffffffffffffffffffffffffffffffffffffff1663095ea7b373a17581a9e3356d9a858b789d68b4d866e593ae94866040518363ffffffff1660e01b8152600401610ed8929190611f4f565b6020604051808303816000875af1158015610ef7573d6000803e3d6000fd5b505050506040513d601f19601f82011682018060405250810190610f1b9190612069565b610f5a576040517f08c379a0000000000000000000000000000000000000000000000000000000008152600401610f51906122ed565b60405180910390fd5b73a17581a9e3356d9a858b789d68b4d866e593ae9473ffffffffffffffffffffffffffffffffffffffff1663f2b9fdb873c02aaa39b223fe8d0a0e5c4f27ead9083c756cc2866040518363ffffffff1660e01b8152600401610fbd929190611f4f565b600060405180830381600087803b158015610fd757600080fd5b505af1158015610feb573d6000803e3d6000fd5b5050505083600560003373ffffffffffffffffffffffffffffffffffffffff1673ffffffffffffffffffffffffffffffffffffffff16815260200190815260200160002060000160008282546110419190611fa7565b925050819055505b5b3373ffffffffffffffffffffffffffffffffffffffff167fe1fffcc4923d04b559f4d29a8bfc6cda04eb5b0d3c460751c2402c5c5cc9109c856040516110909190612102565b60405180910390a250505050565b6110a661193a565b6110b060006119b8565b565b6000600160009054906101000a900473ffffffffffffffffffffffffffffffffffffffff16905090565b600260009054906101000a900473ffffffffffffffffffffffffffffffffffffffff1681565b600360149054906101000a900460ff1681565b61111d61193a565b600073ffffffffffffffffffffffffffffffffffffffff168173ffffffffffffffffffffffffffffffffffffffff16141561118d576040517f08c379a00000000000000000000000000000000000000000000000000000000081526004016111849061240d565b60405180910390fd5b611196816119b8565b50565b60008160ff1614806111ae575060018160ff16145b6111ed576040517f08c379a00000000000000000000000000000000000000000000000000000000081526004016111e49061249f565b60405180910390fd5b6000600560003373ffffffffffffffffffffffffffffffffffffffff1673ffffffffffffffffffffffffffffffffffffffff168152602001908152602001600020905060008260ff16148015611247575060008160000154115b156115595773a17581a9e3356d9a858b789d68b4d866e593ae9473ffffffffffffffffffffffffffffffffffffffff1663f3fef3a373c02aaa39b223fe8d0a0e5c4f27ead9083c756cc27fffffffffffffffffffffffffffffffffffffffffffffffffffffffffffffffff6040518363ffffffff1660e01b81526004016112cf929190611f4f565b600060405180830381600087803b1580156112e957600080fd5b505af11580156112fd573d6000803e3d6000fd5b505050506000600460009054906101000a900473ffffffffffffffffffffffffffffffffffffffff1673ffffffffffffffffffffffffffffffffffffffff166370a08231306040518263ffffffff1660e01b815260040161135e9190611aef565b602060405180830381865afa15801561137b573d6000803e3d6000fd5b505050506040513d601f19601f8201168201806040525081019061139f9190611f22565b905073c02aaa39b223fe8d0a0e5c4f27ead9083c756cc273ffffffffffffffffffffffffffffffffffffffff1663095ea7b37387870bca3f3fd6335c3f4ce8392d69350b4fa4e2836040518363ffffffff1660e01b8152600401611404929190611f4f565b6020604051808303816000875af1158015611423573d6000803e3d6000fd5b505050506040513d601f19601f820116820180604052508101906114479190612069565b611486576040517f08c379a000000000000000000000000000000000000000000000000000000000815260040161147d906122ed565b60405180910390fd5b600260009054906101000a900473ffffffffffffffffffffffffffffffffffffffff1673ffffffffffffffffffffffffffffffffffffffff1663617ba03773c02aaa39b223fe8d0a0e5c4f27ead9083c756cc2833060006040518563ffffffff1660e01b81526004016114fc9493929190612356565b600060405180830381600087803b15801561151657600080fd5b505af115801561152a573d6000803e3d6000fd5b50505050808260010160008282546115429190611fa7565b9250508190555060008260000181905550506118cd565b60018260ff16148015611570575060008160010154115b1561189157600260009054906101000a900473ffffffffffffffffffffffffffffffffffffffff1673ffffffffffffffffffffffffffffffffffffffff166369328dec73c02aaa39b223fe8d0a0e5c4f27ead9083c756cc27fffffffffffffffffffffffffffffffffffffffffffffffffffffffffffffffff306040518463ffffffff1660e01b815260040161160893929190611ed6565b6020604051808303816000875af1158015611627573d6000803e3d6000fd5b505050506040513d601f19601f8201168201806040525081019061164b9190611f22565b506000600460009054906101000a900473ffffffffffffffffffffffffffffffffffffffff1673ffffffffffffffffffffffffffffffffffffffff166370a08231306040518263ffffffff1660e01b81526004016116a99190611aef565b602060405180830381865afa1580156116c6573d6000803e3d6000fd5b505050506040513d601f19601f820116820180604052508101906116ea9190611f22565b905073c02aaa39b223fe8d0a0e5c4f27ead9083c756cc273ffffffffffffffffffffffffffffffffffffffff1663095ea7b373a17581a9e3356d9a858b789d68b4d866e593ae94836040518363ffffffff1660e01b815260040161174f929190611f4f565b6020604051808303816000875af115801561176e573d6000803e3d6000fd5b505050506040513d601f19601f820116820180604052508101906117929190612069565b6117d1576040517f08c379a00000000000000000000000000000000000000000000000000000000081526004016117c8906122ed565b60405180910390fd5b73a17581a9e3356d9a858b789d68b4d866e593ae9473ffffffffffffffffffffffffffffffffffffffff1663f2b9fdb873c02aaa39b223fe8d0a0e5c4f27ead9083c756cc2836040518363ffffffff1660e01b8152600401611834929190611f4f565b600060405180830381600087803b15801561184e57600080fd5b505af1158015611862573d6000803e3d6000fd5b5050505060008260010181905550808260000160008282546118849190611fa7565b92505081905550506118cc565b6040517f08c379a00000000000000000000000000000000000000000000000000000000081526004016118c390612531565b60405180910390fd5b5b3373ffffffffffffffffffffffffffffffffffffffff167fa61bd16ebda9d1c8ec2a61970b39e6640e55ed8433a22765a1b5217b72c4a81260405160405180910390a25050565b600360009054906101000a900473ffffffffffffffffffffffffffffffffffffffff1681565b611942611a7e565b73ffffffffffffffffffffffffffffffffffffffff166119606110b2565b73ffffffffffffffffffffffffffffffffffffffff16146119b6576040517f08c379a00000000000000000000000000000000000000000000000000000000081526004016119ad9061259d565b60405180910390fd5b565b6000600160009054906101000a900473ffffffffffffffffffffffffffffffffffffffff16905081600160006101000a81548173ffffffffffffffffffffffffffffffffffffffff021916908373ffffffffffffffffffffffffffffffffffffffff1602179055508173ffffffffffffffffffffffffffffffffffffffff168173ffffffffffffffffffffffffffffffffffffffff167f8be0079c531659141344cd1fd0a4f28419497f9722a3daafe3b4186f6b6457e060405160405180910390a35050565b600033905090565b6040518060800160405280600081526020016000815260200160008152602001600081525090565b600073ffffffffffffffffffffffffffffffffffffffff82169050919050565b6000611ad982611aae565b9050919050565b611ae981611ace565b82525050565b6000602082019050611b046000830184611ae0565b92915050565b600080fd5b611b1881611ace565b8114611b2357600080fd5b50565b600081359050611b3581611b0f565b92915050565b600060208284031215611b5157611b50611b0a565b5b6000611b5f84828501611b26565b91505092915050565b6000819050919050565b611b7b81611b68565b82525050565b6000608082019050611b966000830187611b72565b611ba36020830186611b72565b611bb06040830185611b72565b611bbd6060830184611b72565b95945050505050565b6000819050919050565b6000611beb611be6611be184611aae565b611bc6565b611aae565b9050919050565b6000611bfd82611bd0565b9050919050565b6000611c0f82611bf2565b9050919050565b611c1f81611c04565b82525050565b6000602082019050611c3a6000830184611c16565b92915050565b611c4981611b68565b82525050565b608082016000820151611c656000850182611c40565b506020820151611c786020850182611c40565b506040820151611c8b6040850182611c40565b506060820151611c9e6060850182611c40565b50505050565b6000608082019050611cb96000830184611c4f565b92915050565b611cc881611b68565b8114611cd357600080fd5b50565b600081359050611ce581611cbf565b92915050565b600060ff82169050919050565b611d0181611ceb565b8114611d0c57600080fd5b50565b600081359050611d1e81611cf8565b92915050565b60008060408385031215611d3b57611d3a611b0a565b5b6000611d4985828601611cd6565b9250506020611d5a85828601611d0f565b9150509250929050565b6000611d6f82611bf2565b9050919050565b611d7f81611d64565b82525050565b6000602082019050611d9a6000830184611d76565b92915050565b611da981611ceb565b82525050565b6000602082019050611dc46000830184611da0565b92915050565b600060208284031215611de057611ddf611b0a565b5b6000611dee84828501611d0f565b91505092915050565b6000611e0282611bf2565b9050919050565b611e1281611df7565b82525050565b6000602082019050611e2d6000830184611e09565b92915050565b600082825260208201905092915050565b7f5969656c6441676772656761746f723a204e6f7420656e6f756768207573657260008201527f2062616c616e6365000000000000000000000000000000000000000000000000602082015250565b6000611ea0602883611e33565b9150611eab82611e44565b604082019050919050565b60006020820190508181036000830152611ecf81611e93565b9050919050565b6000606082019050611eeb6000830186611ae0565b611ef86020830185611b72565b611f056040830184611ae0565b949350505050565b600081519050611f1c81611cbf565b92915050565b600060208284031215611f3857611f37611b0a565b5b6000611f4684828501611f0d565b91505092915050565b6000604082019050611f646000830185611ae0565b611f716020830184611b72565b9392505050565b7f4e487b7100000000000000000000000000000000000000000000000000000000600052601160045260246000fd5b6000611fb282611b68565b9150611fbd83611b68565b9250827fffffffffffffffffffffffffffffffffffffffffffffffffffffffffffffffff03821115611ff257611ff1611f78565b5b828201905092915050565b600061200882611b68565b915061201383611b68565b92508282101561202657612025611f78565b5b828203905092915050565b60008115159050919050565b61204681612031565b811461205157600080fd5b50565b6000815190506120638161203d565b92915050565b60006020828403121561207f5761207e611b0a565b5b600061208d84828501612054565b91505092915050565b7f5472616e73666572206661696c65640000000000000000000000000000000000600082015250565b60006120cc600f83611e33565b91506120d782612096565b602082019050919050565b600060208201905081810360008301526120fb816120bf565b9050919050565b60006020820190506121176000830184611b72565b92915050565b7f5969656c6441676772656761746f723a204e6f7420656e6f756768205745544860008201527f2062616c616e6365000000000000000000000000000000000000000000000000602082015250565b6000612179602883611e33565b91506121848261211d565b604082019050919050565b600060208201905081810360008301526121a88161216c565b9050919050565b60006040820190506121c46000830185611ae0565b6121d16020830184611ae0565b9392505050565b7f5969656c6441676772656761746f723a204e6f7420656e6f756768205745544860008201527f20616c6c6f77616e636500000000000000000000000000000000000000000000602082015250565b6000612234602a83611e33565b915061223f826121d8565b604082019050919050565b6000602082019050818103600083015261226381612227565b9050919050565b600060608201905061227f6000830186611ae0565b61228c6020830185611ae0565b6122996040830184611b72565b949350505050565b7f417070726f76616c206661696c65640000000000000000000000000000000000600082015250565b60006122d7600f83611e33565b91506122e2826122a1565b602082019050919050565b60006020820190508181036000830152612306816122ca565b9050919050565b6000819050919050565b600061ffff82169050919050565b600061234061233b6123368461230d565b611bc6565b612317565b9050919050565b61235081612325565b82525050565b600060808201905061236b6000830187611ae0565b6123786020830186611b72565b6123856040830185611ae0565b6123926060830184612347565b95945050505050565b7f4f776e61626c653a206e6577206f776e657220697320746865207a65726f206160008201527f6464726573730000000000000000000000000000000000000000000000000000602082015250565b60006123f7602683611e33565b91506124028261239b565b604082019050919050565b60006020820190508181036000830152612426816123ea565b9050919050565b7f5969656c6441676772656761746f723a20496e76616c69642070726f746f636f60008201527f6c00000000000000000000000000000000000000000000000000000000000000602082015250565b6000612489602183611e33565b91506124948261242d565b604082019050919050565b600060208201905081810360008301526124b88161247c565b9050919050565b7f5969656c6441676772656761746f723a2046756e64732061726520616c72656160008201527f647920696e207468652068696768657374204150592070726f746f636f6c0000602082015250565b600061251b603e83611e33565b9150612526826124bf565b604082019050919050565b6000602082019050818103600083015261254a8161250e565b9050919050565b7f4f776e61626c653a2063616c6c6572206973206e6f7420746865206f776e6572600082015250565b6000612587602083611e33565b915061259282612551565b602082019050919050565b600060208201905081810360008301526125b68161257a565b905091905056fea26469706673582212203550138275a64a61da87ee52f379e3182557c29ecb662cb6adfc45249300150064736f6c634300080a0033",
	"linkReferences": {},
	"deployedLinkReferences": {}
}